:100000000C9434000C943E000C943E000C943E0082
:100010000C943E000C943E000C943E000C943E0068
:100020000C943E000C943E000C943E000C943E0058
:100030000C943E000C943E000C943E000C943E0048
:100040000C943E000C943E000C943E000C943E0038
:100050000C943E000C943E000C943E000C943E0028
:100060000C943E000C943E0011241FBECFEFD8E04C
:10007000DEBFCDBF0E9461000C9492000C94000082
:10008000ECE7F0E0808180648083808185608083FC
:10009000EAE7F0E0808183688083089580917A00A8
:1000A000806480937A0080917A0086FDFCCF84EC96
:1000B00099E00197F1F72091780030917900C9011A
:1000C0000895EF92FF920F931F93CF93DF938FE0EA
:1000D00084B917B80E94400098E0E92E84E0F82E19
:1000E00002E011E0C8EAD1E60E944E009C018F3F79
:1000F000910509F010F415B911C0805091408F3F5F
:10010000910509F010F405B909C0205032402F3F85
:10011000310509F010F4F5B801C0E5B8CE0101973A
:08012000F1F7E2CFF894FFCFE4
:00000001FF
