:100000000C9434000C943E000C943E000C943E0082
:100010000C943E000C943E000C943E000C943E0068
:100020000C943E000C943E000C943E000C943E0058
:100030000C943E000C943E000C943E000C943E0048
:100040000C943E000C943E000C943E000C943E0038
:100050000C943E000C943E000C943E000C943E0028
:100060000C943E000C943E0011241FBECFEFD8E04C
:10007000DEBFCDBF0E9440000C946C000C940000C9
:100080008FEF84B920E0E1E0F0E048EA51E660E873
:1000900070E00CC0CA010197F1F7CF01022E02C037
:1000A000880F991F0A94E2F785B92F5F283090F3E3
:1000B00021E030E0CA010197F1F7CB01022E02C026
:1000C000959587950A94E2F785B92F5F3F4F2730C2
:0C00D000310581F720E0DECFF894FFCF6F
:00000001FF
