:100000000C9434000C943E000C943E000C943E0082
:100010000C943E000C943E000C943E000C943E0068
:100020000C943E000C943E000C943E000C943E0058
:100030000C943E000C943E000C943E000C943E0048
:100040000C943E000C943E000C943E000C943E0038
:100050000C943E000C943E000C943E000C943E0028
:100060000C943E000C943E0011241FBECFEFD8E04C
:10007000DEBFCDBF0E9471000C9490000C94000074
:10008000843009F1853048F48130B9F0813098F03E
:100090008230A9F0833021F514C08730D1F0883048
:1000A00028F4853091F08630D9F411C08830A1F061
:1000B0008930B1F413C080E40DC089E70BC084E23D
:1000C00009C080E307C089E105C082E103C082E086
:1000D00001C088E785B9089515B8089580E185B90C
:1000E00008951F93CF93DF938FEF84B91AB88CEFE5
:1000F0008BB980E0CCE7D2E9182F812F0E94400015
:10010000CE010197F1F789B18E3F09F410E089B172
:100110008D3F99F7812F8F5F10E08A3068F3EDCF24
:04012000F894FFCF81
:00000001FF
