:100000000C9434000C943E000C943E000C943E0082
:100010000C943E000C943E000C943E000C943E0068
:100020000C943E000C943E000C943E000C943E0058
:100030000C943E000C943E000C943E000C943E0048
:100040000C943E000C943E000C943E000C943E0038
:100050000C943E000C943E000C943E000C943E0028
:100060000C943E000C943E0011241FBECFEFD8E04C
:10007000DEBFCDBF0E9440000C9457000C940000DE
:100080008FEF84B95FE029E130E040EF55B980E1BE
:1000900097E2F9013197F1F70197D9F745B980E176
:1000A00097E2F9013197F1F70197D9F7EFCFF8947B
:0200B000FFCF80
:00000001FF
