:100000000EC015C014C013C012C011C010C00FC064
:100010000EC00DC00CC00BC00AC009C008C011241E
:100020001FBECFE5D1E0DEBFCDBF1BD03DC0E8CFC6
:1000300063E070E027D00895AC0120E03FEF68EA6C
:1000400071E609C038BBCB010197F1F718BACB01B3
:100050000197F1F72F5F822F90E08417950794F3B3
:100060000895CF93DF938FEF87BBC9E1D0E08CE099
:1000700090E0E2DF80E29EE4FE013197F1F7019724
:10008000D9F7F5CF5527002480FF02C0060E571F71
:10009000660F771F6115710521F09695879500977A
:0C00A00099F7952F802D0895F894FFCF5C
:00000001FF
